:100000000C9446000C9465000C9465000C946500FB
:100010000C9465000C9465000C9465000C946500CC
:100020000C9465000C9465000C9465000C946500BC
:100030000C9465000C9413020C9465000C946500FC
:100040000C9465000C9465000C9465000C9465009C
:100050000C9465000C9465000C9465000C9465008C
:100060000C9465000C9465000C9465000C9465007C
:100070000C9465000C9465000C9465000C9465006C
:100080000C9465000C9465000C94650011241FBE4F
:10009000CFEFD0E4DEBFCDBF11E0A0E0B1E0EAE9F0
:1000A000FDE000E00BBF02C007900D92AA36B10739
:1000B000D9F721E0AAE6B1E001C01D92A638B20747
:1000C000E1F70E9472050C94CB060C940000CF93CC
:1000D000DF93CDB7DEB781E00E948E000000DF9194
:1000E000CF910895CF93DF93CDB7DEB784E690E04C
:1000F0000E94670188E30E948E0086E00E948E00C5
:100100008FE00E948E0081E00E948E008AE090E0E5
:100110000E9467010000DF91CF910895CF93DF9394
:100120001F92CDB7DEB789838BE290E02BE230E0FF
:10013000F90120812F7BFC01208388E290E0298156
:10014000FC0120838BE290E02BE230E0F90120817A
:100150002068FC01208300008BE290E02BE230E07D
:10016000F90120812F77FC01208382E090E00E943A
:10017000670100000F90DF91CF910895CF93DF9337
:1001800000D000D0CDB7DEB78A837C836B838A81B1
:100190008830F0F48A81882F90E00896880F880FC5
:1001A000880F0E948E00198210C08981882F90E0EC
:1001B0002B813C81820F931FFC018081882F90E06E
:1001C0000E94F30089818F5F89838981883068F379
:1001D00080E80E948E0000000F900F900F900F900B
:1001E000DF91CF910895CF93DF931F92CDB7DEB704
:1001F00089838BE290E02BE230E0F90120812064DA
:10020000FC01208388E290E02981FC0120838BE2BD
:1002100090E02BE230E0F90120812068FC0120838E
:1002200000008BE290E02BE230E0F90120812F7793
:10023000FC01208381E090E00E94670100000F90A4
:10024000DF91CF910895CF93DF9300D000D0CDB749
:10025000DEB78A837C836B830E9467008A818983EF
:1002600011C0898191E0980F99830E9450018B8180
:100270009C819C012F5F3F4F3C832B83FC0180813D
:100280000E94F3008B819C81FC018081882349F7C7
:1002900000000F900F900F900F90DF91CF91089575
:1002A000CF93DF931F92CDB7DEB7898389818131E8
:1002B00028F4898181580E948E0004C0898181556B
:1002C0000E948E0000000F90DF91CF910895CF9390
:1002D000DF9300D000D000D0CDB7DEB79E838D83F2
:1002E0001A82198213C01C821B8206C000008B81F7
:1002F0009C8101969C838B838B819C81873093406A
:10030000ACF389819A8101969A83898329813A8104
:100310008D819E812817390734F3000026960FB689
:10032000F894DEBF0FBECDBFDF91CF910895CF937C
:10033000DF9300D000D0CDB7DEB769837A838B839B
:100340009C8389819A81AB81BC81809300019093C9
:100350000101A0930201B0930301809100019091EB
:100360000101A0910201B091030180936B01909370
:100370006C01A0936D01B0936E0100000F900F907F
:100380000F900F90DF91CF910895CF93DF93CDB76A
:10039000DEB781E890E02BE0FC01208388E890E064
:1003A0002DE730E0FC01318320838FE690E022E0EE
:1003B000FC01208384E890E0FC011182108280918E
:1003C000000190910101A0910201B091030180937D
:1003D0006B0190936C01A0936D01B0936E018FE55A
:1003E00090E02FE530E0F90120812068FC012083B6
:1003F0000000DF91CF910895CF93DF93CDB7DEB7A3
:1004000081E890E0FC0110820000DF91CF91089517
:10041000CF93DF93CDB7DEB781E080936A01000010
:10042000DF91CF9108951F920F9200905F000F927D
:10043000112400905B000F922F933F934F935F9393
:100440006F937F938F939F93AF93BF93EF93FF939C
:10045000CF93DF93CDB7DEB780916B0190916C01A4
:10046000A0916D01B0916E010197A109B10980932E
:100470006B0190936C01A0936D01B0936E0180911C
:100480006B0190916C01A0916D01B0916E01892B6F
:100490008A2B8B2B91F40E9408028091000190918D
:1004A0000101A0910201B091030180936B0190932F
:1004B0006C01A0936D01B0936E010000DF91CF91AC
:1004C000FF91EF91BF91AF919F918F917F916F912C
:1004D0005F914F913F912F910F9000925B000F9091
:1004E00000925F000F901F901895CF93DF9300D07C
:1004F0001F92CDB7DEB789836A834B838B818823B4
:1005000071F08A81282F30E081E090E002C0880FEE
:10051000991F2A95E2F7982F8981892B0EC08A812D
:10052000282F30E081E090E002C0880F991F2A95C3
:10053000E2F7982F9095898189230F900F900F9063
:10054000DF91CF910895CF93DF9300D0CDB7DEB781
:1005500089836A838A81282F30E081E090E002C09D
:10056000880F991F2A95E2F7982F898189230F9088
:100570000F90DF91CF9108950F931F93CF93DF9347
:10058000CDB7DEB708E210E040E064E08FEF0E94F4
:100590007502F8018083000086E290E0FC01808112
:1005A000809560E00E94A302882311F081E3D3C00C
:1005B00086E290E0FC018081809561E00E94A302C8
:1005C000882311F084E3C7C086E290E0FC018081BB
:1005D000809562E00E94A302882311F087E3BBC0EC
:1005E00086E290E0FC018081809563E00E94A30296
:1005F000882311F08AE2AFC008E210E040E065E035
:100600008FEF0E947502F8018083000086E290E07F
:10061000FC018081809560E00E94A302882311F094
:1006200082E399C086E290E0FC018081809561E0E0
:100630000E94A302882311F085E38DC086E290E03A
:10064000FC018081809562E00E94A302882311F062
:1006500088E381C086E290E0FC018081809563E0C0
:100660000E94A302882311F080E375C008E210E025
:1006700040E066E08FEF0E947502F8018083000081
:1006800086E290E0FC018081809560E00E94A302F8
:10069000882311F083E35FC086E290E0FC01808153
:1006A000809561E00E94A302882311F086E353C085
:1006B00086E290E0FC018081809562E00E94A302C6
:1006C000882311F089E347C086E290E0FC01808135
:1006D000809563E00E94A302882311F083E23BC06F
:1006E00008E210E040E067E08FEF0E947502F80139
:1006F0008083000086E290E0FC018081809560E0CC
:100700000E94A302882311F081E425C086E290E0D4
:10071000FC018081809561E00E94A302882311F092
:1007200082E419C086E290E0FC018081809562E05D
:100730000E94A302882311F083E40DC086E290E0BA
:10074000FC018081809563E00E94A302882311F060
:1007500084E401C080E0DF91CF911F910F91089553
:10076000CF93DF93CDB7DEB72C970FB6F894DEBFEB
:100770000FBECDBF6D837E838F83988729873A878D
:100780004B875C878D819E81AF81B88529853A85AD
:100790004B855C85BC01CD010E94A906DC01CB0123
:1007A00089839A83AB83BC8389819A81AB81BC8125
:1007B000892B8A2B8B2B29F489859A85AB85BC855F
:1007C00011C089859A85AB85BC858D839E83AF8357
:1007D000B88789819A81AB81BC8189879A87AB87E9
:1007E000BC87D0CFBC01CD012C960FB6F894DEBFEC
:1007F0000FBECDBFDF91CF910895CF93DF9300D08F
:100800001F92CDB7DEB789837B836A8389818A3063
:1008100031F48A819B81BC018DE00E94FD0380EC54
:1008200090E0FC018081882F90E080729927892BCD
:10083000B1F386EC90E02981FC01208380E090E018
:100840000F900F900F90DF91CF910895CF93DF938A
:1008500000D0CDB7DEB79A83898389819A818230AF
:10086000910509F46DC08330910534F4009761F06F
:10087000019709F43FC08AC08330910509F44EC046
:10088000049709F471C082C080E290E0FC0180818D
:10089000882F90E081709927892B79F480E290E08D
:1008A000FC018081882F90E082709927892B29F0A4
:1008B00081E090E09A8389831CC080E290E0FC0193
:1008C0008081882F90E082709927892B79F480E2CB
:1008D00090E0FC018081882F90E081709927892B1E
:1008E00029F082E090E09A83898303C01A821982FA
:1008F00053C052C080E290E0FC018081882F90E0DC
:1009000081709927892B29F481E090E09A8389836B
:1009100043C083E090E09A8389833EC080E290E008
:10092000FC018081882F90E084709927892B19F42D
:100930001A82198231C083E090E09A8389832CC0A7
:1009400080E290E0FC018081882F90E082709927FE
:10095000892B29F482E090E09A8389831DC084E08A
:1009600090E09A83898318C080E290E0FC01808146
:10097000882F90E084709927892B19F41A821982A4
:100980000BC084E090E09A83898306C063E371E042
:1009900081E00E942301000089819A8182309105C3
:1009A000E9F0833091052CF4009749F0019779F034
:1009B00022C08330910571F0049799F01CC0109209
:1009C0006F0169E371E081E00E94230114C00E947D
:1009D000670011C081E080936F010DC00E94670025
:1009E0000AC063E171E080E00E94BE0080E090E018
:1009F0000E94F300000089819A810F900F90DF918F
:100A0000CF910895CF93DF9300D0CDB7DEB79A830F
:100A1000898389819A81009719F0019789F01DC017
:100A200080916F01882319F41A82198215C0809170
:100A30006F01813089F481E090E09A8389830CC052
:100A400080916F01813029F481E090E09A8389835D
:100A500004C01A82198201C0000089819A8100971E
:100A6000C9F1019709F037C068E571E081E10E94A2
:100A7000230163E171E080E00E94BE006BE171E060
:100A800081E00E94BE0063E271E082E00E94BE004D
:100A90006BE271E083E00E94BE0081E00E945001A1
:100AA00080E090E00E94F30083E00E94500181E02A
:100AB00090E00E94F30085E00E94500182E090E007
:100AC0000E94F30087E00E94500183E090E00E94C2
:100AD000F30001C0000089819A810F900F90DF918F
:100AE000CF9108950F931F93CF93DF93CDB7DEB7C8
:100AF00029970FB6F894DEBF0FBECDBF81E290E01C
:100B0000FC01108282E290E02FEFFC01208387E25B
:100B100090E02FEFFC01208388E290E0FC0110823E
:100B20008AE290E02FEFFC0120838BE290E0FC0151
:100B300010820E94720080E791E09F838E838BE792
:100B400091E09987888782E090E09C838B831D8267
:100B50008D818093700188EE93E0A0E0B0E08093F7
:100B6000710190937201A0937301B093740180910D
:100B7000710190917201A0917301B0917401809301
:100B8000750190937601A0937701B093780186E286
:100B900094E090937A01809379018D8180937B0119
:100BA00088EE93E0A0E0B0E080937C0190937D011B
:100BB000A0937E01B0937F0180917C0190917D0193
:100BC000A0917E01B0917F0180938001909381017B
:100BD000A0938201B093830182E095E09093850118
:100BE0008093840168EE73E080E090E00E949701BA
:100BF0000E94C5011A8219829CC089819A81880F3E
:100C0000991F9E012F5F3F4F820F931F0596FC0196
:100C100080819181FC0125813681478150858981C0
:100C20009A81880F991FBE016F5F7F4F860F971FB4
:100C30000596FC0180819181FC0181819281A381D3
:100C4000B481281739074A075B0709F045C0898135
:100C50009A81880F991F9E012F5F3F4F820F931F2C
:100C60000596FC010081118189819A81880F991F65
:100C70009E012F5F3F4F820F931F0596FC018081DD
:100C80009181FC012185328589819A81880F991F84
:100C9000AE014F5F5F4F840F951F0596FC01808169
:100CA0009181FC018081082E000C990BF9010995B6
:100CB000F801808389819A81880F991F9E012F5F97
:100CC0003F4F820F931F0596FC0180819181FC01AB
:100CD000158216821782108689819A81880F991F42
:100CE0009E012F5F3F4F820F931F0596FC012081CD
:100CF000318189819A81880F991FAE014F5F5F4FC3
:100D0000840F951F0596FC0180819181FC018581EE
:100D10009681A781B08588519C4FAF4FBF4FF90195
:100D200085839683A783B08789819A8101969A8368
:100D3000898329813A818B819C812817390708F49E
:100D40005CCF000080916A018823E1F310926A0170
:100D500051CFA1E21A2EAA1BBB1BFD010DC0AA1F79
:100D6000BB1FEE1FFF1FA217B307E407F50720F014
:100D7000A21BB30BE40BF50B661F771F881F991F8F
:100D80001A9469F760957095809590959B01AC01D8
:0A0D9000BD01CF010895F894FFCFD4
:100D9A00010000000000000200000000FD03000046
:100DAA0000000800040A110A0404001F000A0011C6
:100DBA000E001F110E0A04150E040404041F150464
:100DCA000E11114572726F72004D656E753A2031BF
:100DDA0020746F20506C6179206F72203220666F08
:100DEA00722053636F726500436861726163746550
:0A0DFA00722053656C6563740000FD
:00000001FF
