:100000000C9446000C9465000C9465000C946500FB
:100010000C9465000C9465000C9465000C946500CC
:100020000C9465000C9465000C9465000C946500BC
:100030000C9465000C9413020C9465000C946500FC
:100040000C9465000C9465000C9465000C9465009C
:100050000C9465000C9465000C9465000C9465008C
:100060000C9465000C9465000C9465000C9465007C
:100070000C9465000C9465000C9465000C9465006C
:100080000C9465000C9465000C94650011241FBE4F
:10009000CFEFD0E4DEBFCDBF11E0A0E0B1E0E6EEEF
:1000A000F0E100E00BBF02C007900D92AC38B10741
:1000B000D9F721E0ACE8B1E001C01D92AE3AB20739
:1000C000E1F70E94FA060C9471080C940000CF939B
:1000D000DF93CDB7DEB781E00E948E000000DF9194
:1000E000CF910895CF93DF93CDB7DEB784E690E04C
:1000F0000E94670188E30E948E0086E00E948E00C5
:100100008FE00E948E0081E00E948E008AE090E0E5
:100110000E9467010000DF91CF910895CF93DF9394
:100120001F92CDB7DEB789838BE290E02BE230E0FF
:10013000F90120812F7BFC01208388E290E0298156
:10014000FC0120838BE290E02BE230E0F90120817A
:100150002068FC01208300008BE290E02BE230E07D
:10016000F90120812F77FC01208382E090E00E943A
:10017000670100000F90DF91CF910895CF93DF9337
:1001800000D000D0CDB7DEB78A837C836B838A81B1
:100190008830F0F48A81882F90E00896880F880FC5
:1001A000880F0E948E00198210C08981882F90E0EC
:1001B0002B813C81820F931FFC018081882F90E06E
:1001C0000E94F30089818F5F89838981883068F379
:1001D00080E80E948E0000000F900F900F900F900B
:1001E000DF91CF910895CF93DF931F92CDB7DEB704
:1001F00089838BE290E02BE230E0F90120812064DA
:10020000FC01208388E290E02981FC0120838BE2BD
:1002100090E02BE230E0F90120812068FC0120838E
:1002200000008BE290E02BE230E0F90120812F7793
:10023000FC01208381E090E00E94670100000F90A4
:10024000DF91CF910895CF93DF9300D000D0CDB749
:10025000DEB78A837C836B830E9467008A818983EF
:1002600011C0898191E0980F99830E9450018B8180
:100270009C819C012F5F3F4F3C832B83FC0180813D
:100280000E94F3008B819C81FC018081882349F7C7
:1002900000000F900F900F900F90DF91CF91089575
:1002A000CF93DF931F92CDB7DEB7898389818131E8
:1002B00028F4898181580E948E0004C0898181556B
:1002C0000E948E0000000F90DF91CF910895CF9390
:1002D000DF9300D000D000D0CDB7DEB79E838D83F2
:1002E0001A82198213C01C821B8206C000008B81F7
:1002F0009C8101969C838B838B819C81873093406A
:10030000ACF389819A8101969A83898329813A8104
:100310008D819E812817390734F3000026960FB689
:10032000F894DEBF0FBECDBFDF91CF910895CF937C
:10033000DF9300D000D0CDB7DEB769837A838B839B
:100340009C8389819A81AB81BC81809300019093C9
:100350000101A0930201B0930301809100019091EB
:100360000101A0910201B091030180938D0190934E
:100370008E01A0938F01B093900100000F900F9019
:100380000F900F90DF91CF910895CF93DF93CDB76A
:10039000DEB781E890E02BE0FC01208388E890E064
:1003A0002DE730E0FC01318320838FE690E022E0EE
:1003B000FC01208384E890E0FC011182108280918E
:1003C000000190910101A0910201B091030180937D
:1003D0008D0190938E01A0938F01B09390018FE5D2
:1003E00090E02FE530E0F90120812068FC012083B6
:1003F0000000DF91CF910895CF93DF93CDB7DEB7A3
:1004000081E890E0FC0110820000DF91CF91089517
:10041000CF93DF93CDB7DEB781E080938C010000EE
:10042000DF91CF9108951F920F9200905F000F927D
:10043000112400905B000F922F933F934F935F9393
:100440006F937F938F939F93AF93BF93EF93FF939C
:10045000CF93DF93CDB7DEB780918D0190918E0160
:10046000A0918F01B09190010197A109B1098093EA
:100470008D0190938E01A0938F01B0939001809194
:100480008D0190918E01A0918F01B0919001892BE7
:100490008A2B8B2B91F40E9408028091000190918D
:1004A0000101A0910201B091030180938D0190930D
:1004B0008E01A0938F01B09390010000DF91CF9146
:1004C000FF91EF91BF91AF919F918F917F916F912C
:1004D0005F914F913F912F910F9000925B000F9091
:1004E00000925F000F901F901895CF93DF9300D07C
:1004F0001F92CDB7DEB789836A834B838B818823B4
:1005000071F08A81282F30E081E090E002C0880FEE
:10051000991F2A95E2F7982F8981892B0EC08A812D
:10052000282F30E081E090E002C0880F991F2A95C3
:10053000E2F7982F9095898189230F900F900F9063
:10054000DF91CF910895CF93DF9300D0CDB7DEB781
:1005500089836A838A81282F30E081E090E002C09D
:10056000880F991F2A95E2F7982F898189230F9088
:100570000F90DF91CF9108950F931F93CF93DF9347
:10058000CDB7DEB708E210E040E064E08FEF0E94F4
:100590007502F8018083000086E290E0FC01808112
:1005A000809560E00E94A302882311F081E3D3C00C
:1005B00086E290E0FC018081809561E00E94A302C8
:1005C000882311F084E3C7C086E290E0FC018081BB
:1005D000809562E00E94A302882311F087E3BBC0EC
:1005E00086E290E0FC018081809563E00E94A30296
:1005F000882311F08AE2AFC008E210E040E065E035
:100600008FEF0E947502F8018083000086E290E07F
:10061000FC018081809560E00E94A302882311F094
:1006200082E399C086E290E0FC018081809561E0E0
:100630000E94A302882311F085E38DC086E290E03A
:10064000FC018081809562E00E94A302882311F062
:1006500088E381C086E290E0FC018081809563E0C0
:100660000E94A302882311F080E375C008E210E025
:1006700040E066E08FEF0E947502F8018083000081
:1006800086E290E0FC018081809560E00E94A302F8
:10069000882311F083E35FC086E290E0FC01808153
:1006A000809561E00E94A302882311F086E353C085
:1006B00086E290E0FC018081809562E00E94A302C6
:1006C000882311F089E347C086E290E0FC01808135
:1006D000809563E00E94A302882311F083E23BC06F
:1006E00008E210E040E067E08FEF0E947502F80139
:1006F0008083000086E290E0FC018081809560E0CC
:100700000E94A302882311F081E425C086E290E0D4
:10071000FC018081809561E00E94A302882311F092
:1007200082E419C086E290E0FC018081809562E05D
:100730000E94A302882311F083E40DC086E290E0BA
:10074000FC018081809563E00E94A302882311F060
:1007500084E401C080E0DF91CF911F910F91089553
:10076000CF93DF93CDB7DEB72C970FB6F894DEBFEB
:100770000FBECDBF6D837E838F83988729873A878D
:100780004B875C878D819E81AF81B88529853A85AD
:100790004B855C85BC01CD010E943408DC01CB0196
:1007A00089839A83AB83BC8389819A81AB81BC8125
:1007B000892B8A2B8B2B29F489859A85AB85BC855F
:1007C00011C089859A85AB85BC858D839E83AF8357
:1007D000B88789819A81AB81BC8189879A87AB87E9
:1007E000BC87D0CFBC01CD012C960FB6F894DEBFEC
:1007F0000FBECDBFDF91CF910895CF93DF9300D08F
:100800001F92CDB7DEB789837B836A8389818A3063
:1008100031F48A819B81BC018DE00E94FD0380EC54
:1008200090E0FC018081882F90E080729927892BCD
:10083000B1F386EC90E02981FC01208380E090E018
:100840000F900F900F90DF91CF910895CF93DF938A
:1008500000D0CDB7DEB789836A838981882F90E085
:100860006A810E945E0800000F900F90DF91CF9187
:100870000895CF93DF931F92CDB7DEB78983898127
:10088000882F90E00E9456080F90DF91CF91089535
:10089000CF93DF93CDB7DEB764E070E084E190E002
:1008A0000E946C0884E190E00E9456088093AD019C
:1008B0000000DF91CF910895CF93DF93CDB7DEB7DE
:1008C0008CE790E02CE730E0F90120812064FC0106
:1008D00020838AE790E02AE730E0F901208123684D
:1008E000FC0120830000DF91CF910895CF93DF9327
:1008F0001F92CDB7DEB789838CE790E02CE730E01C
:10090000F9012081322F307F29812F70232BFC01A8
:1009100020838AE790E02AE730E0F9012081206413
:10092000FC01208300008AE790E0FC018081882F91
:1009300090E080749927892BB1F788E790E0FC015B
:10094000808191810F90DF91CF910895CF93DF93B4
:1009500000D000D0CDB7DEB780E00E9476049C8343
:100960008B838B819C818835924028F081E090E0D8
:100970009A8389830CC08B819C81853F914028F4A8
:1009800082E090E09A83898302C01A821982898169
:100990009A810F900F900F900F90DF91CF91089553
:1009A000CF93DF93CDB7DEB70E94A6049093AC013E
:1009B0008093AB018091AB019091AC01019781F4E0
:1009C0008091320190913301039750F4809132016C
:1009D000909133010196909333018093320115C0B9
:1009E0008091AB019091AC01029779F48091320132
:1009F00090913301892B49F080913201909133011C
:100A0000019790933301809332018091320190914C
:100A100033010E9450018AEF90E00E9467018091AB
:100A2000320190913301DF91CF910895CF93DF93FD
:100A300000D0CDB7DEB79A83898389819A818230CD
:100A4000910509F46DC08330910534F4009761F08D
:100A5000019709F43FC08AC08330910509F44EC064
:100A6000049709F471C082C080E290E0FC018081AB
:100A7000882F90E088709927892B79F480E290E0A4
:100A8000FC018081882F90E080719927892B29F0C3
:100A900081E090E09A8389831CC080E290E0FC01B1
:100AA0008081882F90E080719927892B79F480E2EA
:100AB00090E0FC018081882F90E088709927892B35
:100AC00029F082E090E09A83898303C01A82198218
:100AD00053C052C080E290E0FC018081882F90E0FA
:100AE00088709927892B29F481E090E09A83898383
:100AF00043C083E090E09A8389833EC080E290E027
:100B0000FC018081882F90E080729927892B19F44D
:100B10001A82198231C083E090E09A8389832CC0C5
:100B200080E290E0FC018081882F90E0807199271D
:100B3000892B29F482E090E09A8389831DC084E0A8
:100B400090E09A83898318C080E290E0FC01808164
:100B5000882F90E080729927892B19F41A821982C4
:100B60000BC084E090E09A83898306C064E371E05F
:100B700081E00E942301000089819A8182309105E1
:100B8000E9F0833091052CF4009749F0019779F052
:100B90004EC08330910571F0049799F048C01092CF
:100BA00091016AE371E081E00E94230140C00E944C
:100BB00067003DC081E08093910139C00E946700C9
:100BC00036C069E571E081E00E9423018FE00E9458
:100BD00050018091AD01882F90E0C0960E94F300F3
:100BE00080E00E9439048093AA018091AA0181309B
:100BF00069F462E171E080E00E94BE0080E10E9441
:100C0000500180E090E00E94F30010C08091AA01A2
:100C1000823061F46AE171E080E00E94BE0080E110
:100C20000E94500181E090E00E94F3000000898161
:100C30009A810F900F90DF91CF910895CF93DF931A
:100C400000D0CDB7DEB79A83898389819A818230BB
:100C5000910569F1833091052CF4009759F00197C3
:100C6000D1F07DC08330910509F460C0049709F488
:100C700069C075C080919101882319F41A82198284
:100C80006DC080919101813009F068C081E090E0F1
:100C90009A83898363C080919101813029F482E035
:100CA00090E09A8389835BC01A82198258C0809130
:100CB00091018130C1F580E290E0FC018081882FB4
:100CC00090E088709927892B79F480919201909116
:100CD0009301019749F483E090E09A83898361E06E
:100CE00080E00E9426041EC080E290E0FC0180812A
:100CF000882F90E088709927892B79F48091920150
:100D000090919301039749F483E090E09A8389835B
:100D100062E080E00E94260405C082E090E09A83B1
:100D200089831DC01CC01A82198219C0809191014B
:100D3000813029F484E090E09A83898310C01A827C
:100D400019820DC080919101813029F484E090E0F6
:100D50009A83898304C01A82198201C000008981A4
:100D60009A818230910579F1833091052CF40097B6
:100D7000B9F1019739F037C08330910559F10497E3
:100D800089F131C069E671E081E10E94230162E1ED
:100D900071E080E00E94BE006AE171E081E00E94A3
:100DA000BE0081E00E94500180E090E00E94F300CC
:100DB00083E00E94500181E090E00E94F30081E016
:100DC0000E94500110C00E94D00490939301809320
:100DD000920109C06AE771E081E00E94230103C02B
:100DE000000001C0000089819A810F900F90DF916F
:100DF000CF9108950F931F93CF93DF93CDB7DEB7B5
:100E000029970FB6F894DEBF0FBECDBF81E290E008
:100E1000FC01108282E290E02FEFFC01208387E248
:100E200090E02FEFFC01208388E290E0FC0110822B
:100E30008AE290E02FEFFC0120838BE290E0FC013E
:100E400010820E9472000E945C040E94480484E99F
:100E500091E09F838E838FE991E09987888782E074
:100E600090E09C838B831D828D818093940188EE1A
:100E700093E0A0E0B0E08093950190939601A09359
:100E80009701B09398018091950190919601A0915E
:100E90009701B09198018093990190939A01A09342
:100EA0009B01B0939C0186E195E090939E01809315
:100EB0009D018D8180939F018AE090E0A0E0B0E0E9
:100EC0008093A0019093A101A093A201B093A301EC
:100ED0008091A0019091A101A091A201B091A301E4
:100EE0008093A4019093A501A093A601B093A701BC
:100EF0008EE196E09093A9018093A8016AE070E0EA
:100F000080E090E00E9497010E94C5011A82198238
:100F10009BC089819A81880F991F9E012F5F3F4F47
:100F2000820F931F0596FC0180819181FC01258130
:100F300036814781508589819A81880F991FBE012A
:100F40006F5F7F4F860F971F0596FC01808191810F
:100F5000FC0181819281A381B481281739074A0756
:100F60005B0709F045C089819A81880F991F9E010E
:100F70002F5F3F4F820F931F0596FC010081118167
:100F800089819A81880F991F9E012F5F3F4F820FA1
:100F9000931F0596FC0180819181FC01218532859A
:100FA00089819A81880F991FAE014F5F5F4F840F2F
:100FB000951F0596FC0180819181FC018081082E9E
:100FC000000C990BF9010995F801808389819A81B8
:100FD000880F991F9E012F5F3F4F820F931F059629
:100FE000FC0180819181FC01158216821782108696
:100FF00089819A81880F991F9E012F5F3F4F820F31
:10100000931F0596FC012081318189819A81880F87
:10101000991FAE014F5F5F4F840F951F0596FC012E
:1010200080819181FC0185819681A781B0850A9696
:10103000A11DB11DF90185839683A783B08789819E
:101040009A8101969A83898329813A818B819C8137
:101050002817390708F45DCF000080918C018823A0
:10106000E1F310928C0152CFA1E21A2EAA1BBB1BF6
:10107000FD010DC0AA1FBB1FEE1FFF1FA217B30764
:10108000E407F50720F0A21BB30BE40BF50B661F7A
:10109000771F881F991F1A9469F76095709580953E
:1010A00090959B01AC01BD01CF010895F999FECF48
:1010B00092BD81BDF89A992780B50895262FF99998
:1010C000FECF1FBA92BD81BD20BD0FB6F894FA9A2B
:1010D000F99A0FBE019608950E945E08272F0C947E
:0610E0005F08F894FFCF49
:1010E600010000000000000200000000FD030000F7
:1010F600000000040A110A0404001F000A00110E71
:10110600001F110E0A04150E040404041F15040E14
:10111600111101004572726F72004D656E753A20AD
:101126003120746F20506C6179206F7220322066F6
:101136006F722053636F72650048696768657374E0
:101146002053636F72653A2000436861726163746D
:1011560065722053656C6563740047616D6520692F
:0C1166006E2070726F677265737300007A
:00000001FF
